:100000000C942A000C943C000C943C000C943C0092
:100010000C943C000C943C000C943C000C943C0070
:100020000C943C000C943C000C943C000C943C0060
:100030000C9470030C943C000C943C000C943C0019
:100040000C943C000C943C000C943C000C943C0040
:100050000C943C0011241FBECFE5D8E0DEBFCDBF1D
:1000600010E0A0E6B0E001C01D92A936B107E1F7AB
:100070000E94D2030C9427040C940000DF93CF93CA
:10008000CDB7DEB7A7E2B0E0E7E2F0E080818F779E
:100090008C93A7E2B0E0E7E2F0E080818F7B8C9365
:1000A000A7E2B0E0E7E2F0E0808180628C93A6E214
:1000B000B0E0E6E2F0E0808180688C93A6E2B0E0F8
:1000C000E6E2F0E0808184608C93A6E2B0E0E6E2B4
:1000D000F0E0808182608C93A6E2B0E0E6E2F0E09E
:1000E000808181608C93CF91DF910895DF93CF93CE
:1000F0000F92CDB7DEB78983A7E2B0E0E7E2F0E088
:100100008081807E8C93A7E2B0E0E7E2F0E090810E
:100110008981892B8C93A6E2B0E0E6E2F0E0808151
:1001200080648C93E6E2F0E0808182958F70882F66
:1001300090E0817090700097A9F3A6E2B0E0E6E24B
:10014000F0E0808180618C93E5E2F0E080810F90A7
:10015000CF91DF910895DF93CF9300D000D00F921D
:10016000CDB7DEB789836A834B838981282F30E03E
:100170003D832C838C819D818234910509F444C098
:100180002C813D812334310534F48C819D8181346F
:10019000910571F0BCC02C813D812334310509F4F7
:1001A0005FC08C819D818434910509F485C0AFC006
:1001B0008B818823A9F4ABE3B0E0EBE3F0E080812E
:1001C000482F8A81282F30E081E090E0022E02C083
:1001D000880F991F0A94E2F7809584238C9397C027
:1001E000ABE3B0E0EBE3F0E08081482F8A81282F79
:1001F00030E081E090E0022E02C0880F991F0A943F
:10020000E2F7842B8C9383C08B818823A9F4A8E325
:10021000B0E0E8E3F0E08081482F8A81282F30E0C9
:1002200081E090E0022E02C0880F991F0A94E2F745
:10023000809584238C936BC0A8E3B0E0E8E3F0E002
:100240008081482F8A81282F30E081E090E0022EC3
:1002500002C0880F991F0A94E2F7842B8C9357C031
:100260008B818823A9F4A5E3B0E0E5E3F0E0808189
:10027000482F8A81282F30E081E090E0022E02C0D2
:10028000880F991F0A94E2F7809584238C933FC0CE
:10029000A5E3B0E0E5E3F0E08081482F8A81282FD4
:1002A00030E081E090E0022E02C0880F991F0A948E
:1002B000E2F7842B8C932BC08B818823A9F4A2E3D3
:1002C000B0E0E2E3F0E08081482F8A81282F30E01F
:1002D00081E090E0022E02C0880F991F0A94E2F795
:1002E000809584238C9313C0A2E3B0E0E2E3F0E0B6
:1002F0008081482F8A81282F30E081E090E0022E13
:1003000002C0880F991F0A94E2F7842B8C930F90F8
:100310000F900F900F900F90CF91DF910895DF9382
:10032000CF9300D000D00F92CDB7DEB78A836B8316
:100330008A81282F30E03D832C834C815D814234BB
:10034000510541F18C819D818334910534F42C81D8
:100350003D812134310561F052C04C815D814334CF
:10036000510551F18C819D8184349105B9F147C0CB
:10037000E9E3F0E08081282F30E08B81882F90E046
:10038000A90102C0559547958A95E2F7CA01817087
:10039000898335C0E6E3F0E08081282F30E08B814F
:1003A000882F90E0A90102C0559547958A95E2F7FC
:1003B000CA018170898323C0E3E3F0E08081282FA4
:1003C00030E08B81882F90E0A90102C055954795B8
:1003D0008A95E2F7CA018170898311C0E0E3F0E0F9
:1003E0008081282F30E08B81882F90E0A90102C006
:1003F000559547958A95E2F7CA018170898389816D
:100400000F900F900F900F900F90CF91DF91089564
:10041000DF93CF93CDB7DEB7EAE3F0E08DEF8083D3
:10042000E7E3F0E085E48083E4E3F0E084ED8083BB
:10043000E1E3F0E08AE48083CF91DF910895DF93D8
:10044000CF93CDB7DEB7ADE2B0E0EDE2F0E0808172
:100450008F7E8C93ADE2B0E0EDE2F0E080818F7DA5
:100460008C93ADE2B0E0EDE2F0E0808188608C93A7
:10047000ADE2B0E0EDE2F0E080818B7F8C93ADE205
:10048000B0E0EDE2F0E0808180648C93CF91DF9169
:100490000895DF93CF9300D000D0CDB7DEB78C8323
:1004A0001B821A821982EFE2F0E08C818083EEE2F7
:1004B000F0E080818295869586958370882F90E004
:1004C00081709070882341F081E08B8305C0898121
:1004D0009A8101969A838983EEE2F0E080818823F5
:1004E00034F089819A8123EC8035920780F38981E9
:1004F0009A8123EC8035920710F081E08B838B8109
:100500000F900F900F900F90CF91DF910895DF9390
:10051000CF9300D000D00F92CDB7DEB79D838C83F0
:100520001B821A8219828C819D81009741F481E09F
:100530008B831FC089819A8101969A838983EEE219
:10054000F0E08081882334F089819A8123EC803522
:10055000920780F389819A8123EC8035920718F005
:1005600081E08B8306C0EFE2F0E08081EC81FD81C9
:1005700080838B810F900F900F900F900F90CF91F1
:10058000DF910895DF93CF9300D000D000D0CDB796
:10059000DEB78C837E836D831B821A8219828D81E4
:1005A0009E81009719F481E08B8333C0EFE2F0E085
:1005B0008C818083EEE2F0E080818295869586953D
:1005C0008370882F90E081709070882341F081E0E3
:1005D0008B8305C089819A8101969A838983EEE293
:1005E000F0E08081882334F089819A8123EC803582
:1005F000920780F389819A8123EC8035920718F065
:1006000081E08B8306C0EFE2F0E08081ED81FE8126
:1006100080838B8126960FB6F894DEBF0FBECDBFC8
:10062000CF91DF910895DF93CF93CDB7DEB72897B1
:100630000FB6F894DEBF0FBECDBF9B838A837D8348
:100640006C834E8338872F8319828A819B81009720
:1006500061F08C819D81009741F08F819885009792
:1006600021F080916800813019F481E089832EC0E7
:1006700081E0809368008A819B81909361008093E0
:1006800060008C819D8190936300809362008E81D5
:10069000809366008F8198859093650080936400B5
:1006A000AFE2B0E02091600030916100809167007E
:1006B000882F90E0F901E80FF91F80818C93ADE25B
:1006C000B0E0EDE2F0E0808180688C93898128962B
:1006D0000FB6F894DEBF0FBECDBFCF91DF91089566
:1006E0001F920F920FB60F9211242F933F934F93A7
:1006F0005F936F937F938F939F93AF93BF93EF938A
:10070000FF93DF93CF93CDB7DEB720916200309196
:10071000630080916700882F90E0D901A80FB91F6E
:10072000EFE2F0E080818C93809167008F5F80938F
:1007300067009091670080916600981789F4ADE298
:10074000B0E0EDE2F0E080818F778C93109267004B
:10075000E0916400F09165000995109268000FC067
:10076000AFE2B0E0209160003091610080916700BD
:10077000882F90E0F901E80FF91F80818C93CF91C9
:10078000DF91FF91EF91BF91AF919F918F917F91F9
:100790006F915F914F913F912F910F900FBE0F90EE
:1007A0001F901895DF93CF9300D0CDB7DEB70E948E
:1007B000080282E464E041E00E94AB00AFE5B0E0F3
:1007C000EFE5F0E0808180688C930E941F02E5E3F2
:1007D000F0E08FEF8083E7E2F0E080E48083E6E200
:1007E000F0E087E8808380E00E94FB038A838A81AF
:1007F0000E944902F8CFDF93CF930F92CDB7DEB7B7
:100800008983898187708983E7E2F0E080E48083CF
:10081000A6E2B0E0E6E2F0E0808180648C93E6E25C
:10082000F0E08081882F90E0807190700097B9F39C
:10083000A6E2B0E0E6E2F0E0808180618C93E4E241
:10084000F0E0808191810F90CF91DF910895F8942D
:02085000FFCFD8
:00000001FF
