:100000000C942A000C943F000C943F000C943F0089
:100010000C943F000C943F000C943F000C943F0064
:100020000C943F000C943F000C943F000C943F0054
:100030000C943F000C943F000C943F000C943F0044
:100040000C943F000C943F000C943F000C943F0034
:100050000C943F0011241FBECFE5D8E0DEBFCDBF1A
:1000600010E0A0E6B0E0E2E3F3E002C005900D92FC
:10007000A836B107D9F70E9442010C9497010C945D
:100080000000DF93CF93CDB7DEB7A7E2B0E0E7E2A1
:10009000F0E080818F778C93A7E2B0E0E7E2F0E0B8
:1000A000808180648C93A7E2B0E0E7E2F0E0808199
:1000B00080628C93E6E2F0E01082A6E2B0E0E6E235
:1000C000F0E0808187608C93A6E2B0E0E6E2F0E0A9
:1000D000808180688C93CF91DF910895DF93CF93D7
:1000E00000D00F92CDB7DEB789837B836A83898185
:1000F00087708983A7E2B0E0E7E2F0E08081887F43
:100100008C93A7E2B0E0E7E2F0E090818981892B4F
:100110008C93A6E2B0E0E6E2F0E0808180648C930C
:10012000E6E2F0E08081882F90E080719070009787
:10013000B9F3A6E2B0E0E6E2F0E0808180618C9362
:10014000E4E2F0E08081EA81FB818083E5E2F0E097
:100150008081EA81FB8180830F900F900F90CF9177
:10016000DF910895DF93CF930F92CDB7DEB7198259
:10017000A7E3B0E0E7E3F0E08081806B8C93EDE2F1
:10018000F0E085E58083EEE2F0E0808189830F90E6
:10019000CF91DF910895DF93CF9300D000D0CDB7FA
:1001A000DEB789836A835C834B83A8E3B0E0E8E32E
:1001B000F0E08081482F8981282F30E081E090E0B5
:1001C000022E02C0880F991F0A94E2F780958423BB
:1001D0008C93EFE2F0E08A818083EEE2F0E08081B0
:1001E0008823DCF7EFE2F0E08081EB81FC81808303
:1001F000A8E3B0E0E8E3F0E08081482F8981282F70
:1002000030E081E090E0022E02C0880F991F0A942E
:10021000E2F7842B8C930F900F900F900F90CF915B
:10022000DF910895DF93CF93CDB7DEB7A7E3B0E0BA
:10023000E7E3F0E0808180648C93EDE2F0E084E419
:100240008083CF91DF910895DF93CF9300D00F92F9
:10025000CDB7DEB789837B836A83EFE2F0E08981E3
:100260008083EEE2F0E080818823DCF7EFE2F0E0CB
:100270008081EA81FB8180830F900F900F90CF9156
:10028000DF910895DF93CF93CDB7DEB70E94410091
:100290000E941201E4E3F0E08FEF8083EAE3F0E0F4
:1002A000108280E690E068E00E945701FACFDF9369
:1002B000CF9300D000D00F92CDB7DEB79C838B8355
:1002C0006D8319821A829E012E5F3F4F8BEBB9011D
:1002D0000E9424018A818A3A11F519821CC0898101
:1002E000882F90E09C01205A3F4F8981B9010E94DC
:1002F0006E008981282F30E08B819C81FC01E20F08
:10030000F31F80819E012E5F3F4FB9010E9424019F
:1003100089818F5F898399818D81981700F30F9070
:100320000F900F900F900F90CF91DF910895F89458
:02033000FFCFFD
:08033200102030405060708083
:00000001FF
